{
  "_format": "hh-sol-artifact-1",
  "contractName": "Assessment",
  "sourceName": "contracts/Assessment.sol",
  "abi": [
    {
      "inputs": [
        {
          "internalType": "uint256",
          "name": "initBalance",
          "type": "uint256"
        }
      ],
      "stateMutability": "nonpayable",
      "type": "constructor"
    },
    {
      "inputs": [
        {
          "internalType": "uint256",
          "name": "balance",
          "type": "uint256"
        },
        {
          "internalType": "uint256",
          "name": "withdrawAmount",
          "type": "uint256"
        }
      ],
      "name": "InsufficientBalance",
      "type": "error"
    },
    {
      "anonymous": false,
      "inputs": [
        {
          "indexed": true,
          "internalType": "address",
          "name": "sender",
          "type": "address"
        },
        {
          "indexed": false,
          "internalType": "uint256",
          "name": "amount",
          "type": "uint256"
        }
      ],
      "name": "Deposit",
      "type": "event"
    },
    {
      "anonymous": false,
      "inputs": [
        {
          "indexed": true,
          "internalType": "address",
          "name": "sender",
          "type": "address"
        },
        {
          "indexed": false,
          "internalType": "uint256",
          "name": "amount",
          "type": "uint256"
        }
      ],
      "name": "Withdraw",
      "type": "event"
    },
    {
      "inputs": [],
      "name": "balance",
      "outputs": [
        {
          "internalType": "uint256",
          "name": "",
          "type": "uint256"
        }
      ],
      "stateMutability": "view",
      "type": "function"
    },
    {
      "inputs": [
        {
          "internalType": "uint256",
          "name": "_amount",
          "type": "uint256"
        }
      ],
      "name": "deposit",
      "outputs": [],
      "stateMutability": "nonpayable",
      "type": "function"
    },
    {
      "inputs": [],
      "name": "getBalance",
      "outputs": [
        {
          "internalType": "uint256",
          "name": "",
          "type": "uint256"
        }
      ],
      "stateMutability": "view",
      "type": "function"
    },
    {
      "inputs": [],
      "name": "owner",
      "outputs": [
        {
          "internalType": "address",
          "name": "",
          "type": "address"
        }
      ],
      "stateMutability": "view",
      "type": "function"
    },
    {
      "inputs": [
        {
          "internalType": "uint256",
          "name": "_withdrawAmount",
          "type": "uint256"
        }
      ],
      "name": "withdraw",
      "outputs": [],
      "stateMutability": "nonpayable",
      "type": "function"
    }
  ],
  "bytecode": "0x608060405234801561001057600080fd5b506040516108fa3803806108fa833981810160405281019061003291906100ba565b336000806101000a81548173ffffffffffffffffffffffffffffffffffffffff021916908373ffffffffffffffffffffffffffffffffffffffff16021790555080600181905550506100e7565b600080fd5b6000819050919050565b61009781610084565b81146100a257600080fd5b50565b6000815190506100b48161008e565b92915050565b6000602082840312156100d0576100cf61007f565b5b60006100de848285016100a5565b91505092915050565b610804806100f66000396000f3fe608060405234801561001057600080fd5b50600436106100575760003560e01c806312065fe01461005c5780632e1a7d4d1461007a5780638da5cb5b14610096578063b69ef8a8146100b4578063b6b55f25146100d2575b600080fd5b6100646100ee565b604051610071919061048f565b60405180910390f35b610094600480360381019061008f91906104db565b6100f8565b005b61009e610269565b6040516100ab9190610549565b60405180910390f35b6100bc61028d565b6040516100c9919061048f565b60405180910390f35b6100ec60048036038101906100e791906104db565b610293565b005b6000600154905090565b60008054906101000a900473ffffffffffffffffffffffffffffffffffffffff1673ffffffffffffffffffffffffffffffffffffffff163373ffffffffffffffffffffffffffffffffffffffff1614610186576040517f08c379a000000000000000000000000000000000000000000000000000000000815260040161017d906105e7565b60405180910390fd5b600060015490508160015410156101d857600154826040517fcf4791810000000000000000000000000000000000000000000000000000000081526004016101cf929190610607565b60405180910390fd5b6101ed826001546103b990919063ffffffff16565b60018190555061020682826103b990919063ffffffff16565b6001541461021757610216610630565b5b3373ffffffffffffffffffffffffffffffffffffffff167f884edad9ce6fa2440d8a54cc123490eb96d2768479d49ff9c7366125a94243648360405161025d919061048f565b60405180910390a25050565b60008054906101000a900473ffffffffffffffffffffffffffffffffffffffff1681565b60015481565b60008054906101000a900473ffffffffffffffffffffffffffffffffffffffff1673ffffffffffffffffffffffffffffffffffffffff163373ffffffffffffffffffffffffffffffffffffffff1614610321576040517f08c379a0000000000000000000000000000000000000000000000000000000008152600401610318906105e7565b60405180910390fd5b6000600154905061033d8260015461041890919063ffffffff16565b600181905550610356828261041890919063ffffffff16565b6001541461036757610366610630565b5b3373ffffffffffffffffffffffffffffffffffffffff167fe1fffcc4923d04b559f4d29a8bfc6cda04eb5b0d3c460751c2402c5c5cc9109c836040516103ad919061048f565b60405180910390a25050565b6000828211156103fe576040517f08c379a00000000000000000000000000000000000000000000000000000000081526004016103f5906106ab565b60405180910390fd5b6000828461040c91906106fa565b90508091505092915050565b6000808284610427919061072e565b90508381101561046c576040517f08c379a0000000000000000000000000000000000000000000000000000000008152600401610463906107ae565b60405180910390fd5b8091505092915050565b6000819050919050565b61048981610476565b82525050565b60006020820190506104a46000830184610480565b92915050565b600080fd5b6104b881610476565b81146104c357600080fd5b50565b6000813590506104d5816104af565b92915050565b6000602082840312156104f1576104f06104aa565b5b60006104ff848285016104c6565b91505092915050565b600073ffffffffffffffffffffffffffffffffffffffff82169050919050565b600061053382610508565b9050919050565b61054381610528565b82525050565b600060208201905061055e600083018461053a565b92915050565b600082825260208201905092915050565b7f596f7520617265206e6f7420746865206f776e6572206f66207468697320616360008201527f636f756e74000000000000000000000000000000000000000000000000000000602082015250565b60006105d1602583610564565b91506105dc82610575565b604082019050919050565b60006020820190508181036000830152610600816105c4565b9050919050565b600060408201905061061c6000830185610480565b6106296020830184610480565b9392505050565b7f4e487b7100000000000000000000000000000000000000000000000000000000600052600160045260246000fd5b7f536166654d6174683a207375627472616374696f6e206f766572666c6f770000600082015250565b6000610695601e83610564565b91506106a08261065f565b602082019050919050565b600060208201905081810360008301526106c481610688565b9050919050565b7f4e487b7100000000000000000000000000000000000000000000000000000000600052601160045260246000fd5b600061070582610476565b915061071083610476565b9250828203905081811115610728576107276106cb565b5b92915050565b600061073982610476565b915061074483610476565b925082820190508082111561075c5761075b6106cb565b5b92915050565b7f536166654d6174683a206164646974696f6e206f766572666c6f770000000000600082015250565b6000610798601b83610564565b91506107a382610762565b602082019050919050565b600060208201905081810360008301526107c78161078b565b905091905056fea2646970667358221220ab02c4250feda309b48ab3963c1c0e50201d302246b7e4211006bebe90bc809f64736f6c63430008110033",
  "linkReferences": {},
  "deployedLinkReferences": {}
}